:100000000C942A000C94D1010C94FA010C94230254
:100010000C9447000C9447000C9447000C94470044
:100020000C9447000C9447000C9444030C94470034
:100030000C9447000C9447000C9447000C94470024
:100040000C9447000C9447000C9447000C94470014
:100050000C94470011241FBECFE5D8E0DEBFCDBF12
:1000600010E0A0E6B0E0E0EEFCE002C005900D92EA
:10007000A839B107D9F720E0A8E9B0E001C01D9286
:10008000A13BB207E1F70E94A8050C946E060C9400
:10009000000060E080E00E94500588E790E00E9448
:1000A000440584E090E00E945B0566E080E00E94E9
:1000B00050058BE790E00E94440582EA9DE00E9493
:1000C0005B056CE080E00E9450058EE790E00E94A6
:1000D000440582E30E949B0560E081E00E94500598
:1000E00081E890E00C9444051F93CF93DF938091B7
:1000F0009C0090919D00C0919800D0919900C81BE0
:10010000D90B20919A0030919B00281B390B44E6B3
:10011000429FC001439F900D1124BE010E94F6052D
:10012000162F62E080E00E9450059E010D2E000C0B
:10013000440B550B60E87EE380E090E00E944006AF
:10014000C9010E945B0568E080E00E945005CE0175
:100150000E945B056EE080E00E945005812FDF91D8
:10016000CF911F910C949B05CF92DF92EF92FF925B
:100170000F931F93CF93DF9340919C0050919D006C
:1001800020919A0030919B00241B350B64E6629FFE
:10019000C001639F900D11246091980070919900A7
:1001A000641B750B0E94F605CB0123E0880F991F95
:1001B0002A95E1F764E670E00E940A066B0188E088
:1001C00090E07C01E61AF70A60E081E00E945005A9
:1001D00004E010E0C1E0D0E005C084E990E00E94B6
:1001E00044052196CC15DD05C4F382E00E9442054A
:1001F000C1E0D0E0CE15DF0564F00150110951F7E0
:10020000DF91CF911F910F91FF90EF90DF90CF90F2
:10021000089586E990E00E9444052196EBCF413095
:1002200091F018F0423029F10895E82FF0E0EE0F38
:10023000FF1FE059FF4F0190F081E02D8081609514
:1002400068236083089590E0880F991FFC01E059AE
:10025000FF4F0190F081E02D3081262F2095232340
:10026000208388599F4FDC01ED91FC918081682BA0
:10027000E8CFE82FF0E0EE0FFF1FE059FF4F0190AD
:10028000F081E02DF3CF442319F0413079F0089547
:10029000E82FF0E0EE0FFF1FE859FF4F0190F081CB
:1002A000E02D80816095682360830895E82FF0E059
:1002B000EE0FFF1FE859FF4F0190F081E02D808184
:1002C000682BF2CFE82FF0E0EE0FFF1FE859FF4F49
:1002D0000190F081E02D8081682760830895E82FE8
:1002E000F0E0EE0FFF1FE05AFF4F0190F081E02D8C
:1002F0008081682319F4FA011082089581E0FA01DF
:1003000080830895813041F018F0823041F00895E3
:100310008BB780648BBF08958BB78068FBCF8BB79A
:100320008062F8CF813041F018F0823041F00895BA
:100330008BB78F7B8BBF08958BB78F77FBCF8BB736
:100340008F7DF8CF813079F018F08230D9F00895A0
:1003500085B78C7F85BF85B7682B65BF5093A30099
:100360004093A200089585B7837F85BF85B794E049
:10037000699FB0011124682B65BF5093A100409381
:10038000A0000895633041F484B7806484BF509323
:100390009F0040939E0008956230C9F784B78F7B19
:1003A000F5CF1F920F920FB60F9211242F933F9308
:1003B0004F935F936F937F938F939F93AF93BF936D
:1003C000EF93FF93E091A200F091A300309709F022
:1003D0000995FF91EF91BF91AF919F918F917F917F
:1003E0006F915F914F913F912F910F900FBE0F90A2
:1003F0001F9018951F920F920FB60F9211242F93F2
:100400003F934F935F936F937F938F939F93AF939C
:10041000BF93EF93FF93E091A000F091A10030977C
:1004200009F00995FF91EF91BF91AF919F918F9145
:100430007F916F915F914F913F912F910F900FBEE0
:100440000F901F9018951F920F920FB60F921124C4
:100450002F933F934F935F936F937F938F939F93CC
:10046000AF93BF93EF93FF93E0919E00F0919F00B5
:10047000309709F00995FF91EF91BF91AF919F914E
:100480008F917F916F915F914F913F912F910F903D
:100490000FBE0F901F90189512BE83B79091B000B9
:1004A000892B83BF08951DBC1CBC8EB59FB52091C0
:1004B000AF00822B9FBD8EBD0895882339F0813017
:1004C00021F47FBD6EBD4093AF000895683671057D
:1004D00029F4433318F0425360E670E063BF409361
:1004E000B0000895CF92DF92EF92FF926A017B01F4
:1004F000811112C08AEF8CBF0E944C0281E0C81AA1
:10050000D108E108F1088FEFC816D806E806F8060A
:1005100041F483B7887F83BFFF90EF90DF90CF9047
:10052000089508B601FEFDCF88B7826088BFE6CF88
:100530000F93882329F08130C9F40F910C94530252
:100540008AEF8CBF4093AA005093AB006093AC003D
:100550007093AD003093A9002093A8000093AE00E3
:1005600089B7826089BF0F910C944C020F91089556
:10057000811101C06CBF0895882319F0813019F0F2
:1005800008950C944C020C945302882319F0813086
:1005900029F0089583B7887F83BF08958EB59FB5EE
:1005A000887F9FBD8EBD0895AF92BF92CF92DF929C
:1005B000EF92FF920F931F93CF93DF9300D000D061
:1005C00000D0CDB7DEB75C018B01CE0101967C0176
:1005D00086E0F70111928A95E9F78EB59FB58064A0
:1005E0009FBD8EBD0E945302F7019E01295F3F4FC0
:1005F00008B605FEFDCF86B597B58193919388B770
:10060000806288BF8EB59FB540E484279FBD8EBDB4
:10061000E217F30769F78EB59FB5887F9FBD8EBD42
:1006200089819A81CD80DE80C81AD90AF12CE12C0B
:100630002B813C81281B390BA4E6B0E00E945F06A9
:10064000A70196010E941E06F501208360E970ED66
:1006500083E090E0A70196010E941E06F801208326
:1006600031834283538326960FB6F894DEBF0FBEC4
:10067000CDBFDF91CF911F910F91FF90EF90DF9051
:10068000CF90BF90AF9008951F920F920FB60F9228
:1006900011242F933F934F935F936F937F938F9387
:1006A0009F93AF93BF93EF93FF938091A40090919A
:1006B000A500A091A600B091A7000196A11DB11DB3
:1006C0008093A4009093A500A093A600B093A700E8
:1006D0004091AA005091AB006091AC007091AD00C8
:1006E00084179507A607B707B1F4E091A800F09129
:1006F000A900309781F009951092A4001092A500EE
:100700001092A6001092A7008091AE00811103C044
:1007100083B7887F83BFFF91EF91BF91AF919F9186
:100720008F917F916F915F914F913F912F910F909A
:100730000FBE0F901F90189588E480B911B80895E6
:1007400094EA96BF91B1987F983021F091B1987F4B
:100750009031C1F7880F682B63B984E886BF06B66D
:1007600007FEFDCF089584E986BF06B604FCFDCFE1
:10077000089583B984E886BF06B607FEFDCF0895C5
:1007800024EC26BF06B607FEFDCF23B1FC01208373
:10079000089524E826BF06B607FEFDCF23B1FC016D
:1007A00020830895813049F018F0823049F008958F
:1007B00042E064E082E00C940F0142E060E8FACF8E
:1007C00042E068E083E0F7CF813049F018F08230F2
:1007D00049F0089541E064E082E00C94430141E077
:1007E00060E8FACF41E068E083E0F7CF813049F07C
:1007F00018F0823049F0089540E064E082E00C9403
:10080000430140E060E8FACF40E068E083E0F7CFE2
:10081000813041F018F0823039F0089564E082E0D0
:100820000C94620160E8FBCF68E083E0F9CFCF93DE
:10083000C82F40E062E081E00E94430140E064E0B4
:1008400081E00E944301C4FB442740F960E180E05D
:100850000E944301C5FB442740F960E280E00E940A
:100860004301C6FB442740F960E480E00E94430155
:100870004C2F441F4427441F60E880E00E9443013E
:1008800040E068E081E00E94430187EC90E001973E
:10089000F1F700C0000041E068E081E00E94430100
:1008A0004C2F417060E180E00E944301C1FB44276E
:1008B00040F960E280E00E944301C2FB442740F916
:1008C00060E480E00E944301C3FB442740F960E8F4
:1008D00080E00E94430140E068E081E00E94430123
:1008E00087EC90E00197F1F700C0000041E068E07C
:1008F00081E0CF910C944301CF93C82F41E062E097
:1009000081E00E94430140E064E081E00E944301F5
:10091000C4FB442740F960E180E00E944301C5FB2D
:10092000442740F960E280E00E944301C6FB44276F
:1009300040F960E480E00E9443014C2F441F4427AB
:10094000441F60E880E00E94430140E068E081E0ED
:100950000E94430187EC90E00197F1F700C000008E
:1009600041E068E081E00E9443014C2F417060E16A
:1009700080E00E944301C1FB442740F960E280E02F
:100980000E944301C2FB442740F960E480E00E94DA
:100990004301C3FB442740F960E880E00E94430123
:1009A00040E068E081E00E94430187EC90E001971D
:1009B000F1F700C0000041E068E081E0CF910C94C5
:1009C000430142E06EE081E00E940F0142E060EFEF
:1009D00080E00E940F0141E068E081E00E94430155
:1009E0002FEF80E792E0215080409040E1F700C077
:1009F000000040E060E180E00E94430141E060E2ED
:100A000080E00E94430140E060E480E00E944301F6
:100A100040E060E880E00E94430140E068E081E05F
:100A20000E94430187EC90E00197F1F700C00000BD
:100A300041E068E081E00E9443018CE20E941704DB
:100A40008FE99FE00197F1F700C000008FE00E945E
:100A500017048FE99FE00197F1F700C0000081E0E3
:100A60000E9417048FE39FE10197F1F700C0000097
:100A700086E00E9417048FE99FE00197F1F700C01C
:100A8000000008950C947C04CF93DF93EC018991CE
:100A9000811103C0DF91CF9108950E947C04F7CFAC
:100AA000882319F0813029F0089580E8860F0C948E
:100AB000170480ECFBCFCF93DF9368EE73E00E94C6
:100AC000F605EC0180E3860F0E947C04CE0164E60B
:100AD00070E00E94F605EC0180E3860F0E947C0422
:100AE000CE016AE070E00E94F605C82F80E3860F11
:100AF0000E947C0480E38C0FDF91CF910C947C04E6
:100B0000CF93DF9364E670E00E94F605EC0180E38A
:100B1000860F0E947C04CE016AE070E00E94F60518
:100B2000C82F80E3860F0E947C0480E38C0FDF9146
:100B3000CF910C947C04CF936AE00E94EA05C92F00
:100B4000805D0E947C0480E38C0FCF910C947C0428
:100B50000E94E10482B340E066E00E940F01C7B545
:100B600086B5DC2FC82F8DB58CB588B7806288BF5D
:100B70000E94490011E401E01FBC1EBD88B78072CD
:100B800088BF8823D9F3D0939D00C0939C0088B779
:100B9000806288BF0EBD88B7807288BF8823D9F372
:100BA000D0939B00C0939A0088B7806288BF1EBD17
:100BB00088B7807288BF8823D9F3D0939900C093F7
:100BC000980088B7806288BF1EBC0E9474000E9493
:100BD000B400D2CF991B79E004C0991F961708F092
:100BE000961B881F7A95C9F780950895AA1BBB1B91
:100BF00051E107C0AA1FBB1FA617B70710F0A61B1D
:100C0000B70B881F991F5A95A9F780959095BC013D
:100C1000CD01089597FB072E16F4009407D077FDB9
:100C200009D00E94F60507FC05D03EF49095819509
:100C30009F4F0895709561957F4F0895A1E21A2EF8
:100C4000AA1BBB1BFD010DC0AA1FBB1FEE1FFF1F70
:100C5000A217B307E407F50720F0A21BB30BE40BC0
:100C6000F50B661F771F881F991F1A9469F7609507
:100C70007095809590959B01AC01BD01CF010895C1
:100C8000052E97FB1EF400940E94570657FD07D0CF
:100C90000E941E0607FC03D04EF40C945706509594
:100CA0004095309521953F4F4F4F5F4F0895909558
:100CB0008095709561957F4F8F4F9F4F0895A29FAC
:100CC000B001B39FC001A39F700D811D1124911D20
:100CD000B29F700D811D1124911D0895F894FFCFCE
:100CE00039003600330030003B0038003500320058
:100CF0003A00370034003100463D00543D00443D89
:100D0000002D2D2D2D5F5F5F5F2D2D2D2D5F5F5FE2
:080D10005F2D2D2D2D005F0069
:00000001FF
